{
  "contractName": "Messenger",
  "abi": [
    {
      "inputs": [
        {
          "internalType": "address",
          "name": "",
          "type": "address"
        },
        {
          "internalType": "uint256",
          "name": "",
          "type": "uint256"
        }
      ],
      "name": "allContacts",
      "outputs": [
        {
          "internalType": "address",
          "name": "",
          "type": "address"
        }
      ],
      "stateMutability": "view",
      "type": "function",
      "constant": true
    },
    {
      "inputs": [
        {
          "internalType": "address",
          "name": "",
          "type": "address"
        }
      ],
      "name": "isInContact",
      "outputs": [
        {
          "internalType": "bool",
          "name": "",
          "type": "bool"
        }
      ],
      "stateMutability": "view",
      "type": "function",
      "constant": true
    },
    {
      "inputs": [
        {
          "internalType": "address",
          "name": "addressToBeAdded",
          "type": "address"
        }
      ],
      "name": "addContact",
      "outputs": [],
      "stateMutability": "payable",
      "type": "function",
      "payable": true
    },
    {
      "inputs": [
        {
          "internalType": "address",
          "name": "showContactsOf",
          "type": "address"
        }
      ],
      "name": "showContacts",
      "outputs": [
        {
          "internalType": "address[]",
          "name": "",
          "type": "address[]"
        }
      ],
      "stateMutability": "view",
      "type": "function",
      "constant": true
    },
    {
      "inputs": [
        {
          "internalType": "address",
          "name": "showChatsWith",
          "type": "address"
        }
      ],
      "name": "showMsgsOf",
      "outputs": [
        {
          "components": [
            {
              "internalType": "string",
              "name": "_msg",
              "type": "string"
            },
            {
              "internalType": "address",
              "name": "_address",
              "type": "address"
            }
          ],
          "internalType": "struct Messenger.Message[]",
          "name": "",
          "type": "tuple[]"
        }
      ],
      "stateMutability": "view",
      "type": "function",
      "constant": true
    },
    {
      "inputs": [
        {
          "internalType": "address",
          "name": "_to",
          "type": "address"
        },
        {
          "internalType": "string",
          "name": "_msg",
          "type": "string"
        }
      ],
      "name": "sendMsgTo",
      "outputs": [],
      "stateMutability": "payable",
      "type": "function",
      "payable": true
    }
  ],
  "bytecode": "0x608060405234801561001057600080fd5b50611345806100206000396000f3fe6080604052600436106100555760003560e01c80638d6a54e21461005a5780638f262220146100975780639e5c235e146100d4578063a414b37914610111578063b06b36c91461012d578063ff0129ef14610149575b600080fd5b34801561006657600080fd5b50610081600480360381019061007c91906109b7565b610186565b60405161008e9190610b82565b60405180910390f35b3480156100a357600080fd5b506100be60048036038101906100b99190610bda565b61030c565b6040516100cb9190610c29565b60405180910390f35b3480156100e057600080fd5b506100fb60048036038101906100f691906109b7565b61035a565b6040516101089190610cf3565b60405180910390f35b61012b600480360381019061012691906109b7565b6104aa565b005b61014760048036038101906101429190610e4a565b61073d565b005b34801561015557600080fd5b50610170600480360381019061016b91906109b7565b610925565b60405161017d9190610ec1565b60405180910390f35b6060600260008373ffffffffffffffffffffffffffffffffffffffff1673ffffffffffffffffffffffffffffffffffffffff168152602001908152602001600020805480602002602001604051908101604052809291908181526020016000905b82821015610301578382906000526020600020906002020160405180604001604052908160008201805461021a90610f0b565b80601f016020809104026020016040519081016040528092919081815260200182805461024690610f0b565b80156102935780601f1061026857610100808354040283529160200191610293565b820191906000526020600020905b81548152906001019060200180831161027657829003601f168201915b505050505081526020016001820160009054906101000a900473ffffffffffffffffffffffffffffffffffffffff1673ffffffffffffffffffffffffffffffffffffffff1673ffffffffffffffffffffffffffffffffffffffff1681525050815260200190600101906101e7565b505050509050919050565b6000602052816000526040600020818154811061032857600080fd5b906000526020600020016000915091509054906101000a900473ffffffffffffffffffffffffffffffffffffffff1681565b606060008060008473ffffffffffffffffffffffffffffffffffffffff1673ffffffffffffffffffffffffffffffffffffffff16815260200190815260200160002080549050036103e0576040517f08c379a00000000000000000000000000000000000000000000000000000000081526004016103d790610f99565b60405180910390fd5b6000808373ffffffffffffffffffffffffffffffffffffffff1673ffffffffffffffffffffffffffffffffffffffff16815260200190815260200160002080548060200260200160405190810160405280929190818152602001828054801561049e57602002820191906000526020600020905b8160009054906101000a900473ffffffffffffffffffffffffffffffffffffffff1673ffffffffffffffffffffffffffffffffffffffff1681526020019060010190808311610454575b50505050509050919050565b8073ffffffffffffffffffffffffffffffffffffffff163373ffffffffffffffffffffffffffffffffffffffff1603610518576040517f08c379a000000000000000000000000000000000000000000000000000000000815260040161050f90611005565b60405180910390fd5b600160008273ffffffffffffffffffffffffffffffffffffffff1673ffffffffffffffffffffffffffffffffffffffff16815260200190815260200160002060009054906101000a900460ff16156105a5576040517f08c379a000000000000000000000000000000000000000000000000000000000815260040161059c90611071565b60405180910390fd5b6000803373ffffffffffffffffffffffffffffffffffffffff1673ffffffffffffffffffffffffffffffffffffffff168152602001908152602001600020819080600181540180825580915050600190039060005260206000200160009091909190916101000a81548173ffffffffffffffffffffffffffffffffffffffff021916908373ffffffffffffffffffffffffffffffffffffffff1602179055506000808273ffffffffffffffffffffffffffffffffffffffff1673ffffffffffffffffffffffffffffffffffffffff168152602001908152602001600020339080600181540180825580915050600190039060005260206000200160009091909190916101000a81548173ffffffffffffffffffffffffffffffffffffffff021916908373ffffffffffffffffffffffffffffffffffffffff16021790555060018060008373ffffffffffffffffffffffffffffffffffffffff1673ffffffffffffffffffffffffffffffffffffffff16815260200190815260200160002060006101000a81548160ff02191690831515021790555050565b600260008373ffffffffffffffffffffffffffffffffffffffff1673ffffffffffffffffffffffffffffffffffffffff16815260200190815260200160002060405180604001604052808381526020013373ffffffffffffffffffffffffffffffffffffffff16815250908060018154018082558091505060019003906000526020600020906002020160009091909190915060008201518160000190816107e5919061123d565b5060208201518160010160006101000a81548173ffffffffffffffffffffffffffffffffffffffff021916908373ffffffffffffffffffffffffffffffffffffffff1602179055505050600260003373ffffffffffffffffffffffffffffffffffffffff1673ffffffffffffffffffffffffffffffffffffffff16815260200190815260200160002060405180604001604052808381526020018473ffffffffffffffffffffffffffffffffffffffff16815250908060018154018082558091505060019003906000526020600020906002020160009091909190915060008201518160000190816108d7919061123d565b5060208201518160010160006101000a81548173ffffffffffffffffffffffffffffffffffffffff021916908373ffffffffffffffffffffffffffffffffffffffff16021790555050505050565b60016020528060005260406000206000915054906101000a900460ff1681565b6000604051905090565b600080fd5b600080fd5b600073ffffffffffffffffffffffffffffffffffffffff82169050919050565b600061098482610959565b9050919050565b61099481610979565b811461099f57600080fd5b50565b6000813590506109b18161098b565b92915050565b6000602082840312156109cd576109cc61094f565b5b60006109db848285016109a2565b91505092915050565b600081519050919050565b600082825260208201905092915050565b6000819050602082019050919050565b600081519050919050565b600082825260208201905092915050565b60005b83811015610a4a578082015181840152602081019050610a2f565b60008484015250505050565b6000601f19601f8301169050919050565b6000610a7282610a10565b610a7c8185610a1b565b9350610a8c818560208601610a2c565b610a9581610a56565b840191505092915050565b610aa981610979565b82525050565b60006040830160008301518482036000860152610acc8282610a67565b9150506020830151610ae16020860182610aa0565b508091505092915050565b6000610af88383610aaf565b905092915050565b6000602082019050919050565b6000610b18826109e4565b610b2281856109ef565b935083602082028501610b3485610a00565b8060005b85811015610b705784840389528151610b518582610aec565b9450610b5c83610b00565b925060208a01995050600181019050610b38565b50829750879550505050505092915050565b60006020820190508181036000830152610b9c8184610b0d565b905092915050565b6000819050919050565b610bb781610ba4565b8114610bc257600080fd5b50565b600081359050610bd481610bae565b92915050565b60008060408385031215610bf157610bf061094f565b5b6000610bff858286016109a2565b9250506020610c1085828601610bc5565b9150509250929050565b610c2381610979565b82525050565b6000602082019050610c3e6000830184610c1a565b92915050565b600081519050919050565b600082825260208201905092915050565b6000819050602082019050919050565b6000610c7c8383610aa0565b60208301905092915050565b6000602082019050919050565b6000610ca082610c44565b610caa8185610c4f565b9350610cb583610c60565b8060005b83811015610ce6578151610ccd8882610c70565b9750610cd883610c88565b925050600181019050610cb9565b5085935050505092915050565b60006020820190508181036000830152610d0d8184610c95565b905092915050565b600080fd5b600080fd5b7f4e487b7100000000000000000000000000000000000000000000000000000000600052604160045260246000fd5b610d5782610a56565b810181811067ffffffffffffffff82111715610d7657610d75610d1f565b5b80604052505050565b6000610d89610945565b9050610d958282610d4e565b919050565b600067ffffffffffffffff821115610db557610db4610d1f565b5b610dbe82610a56565b9050602081019050919050565b82818337600083830152505050565b6000610ded610de884610d9a565b610d7f565b905082815260208101848484011115610e0957610e08610d1a565b5b610e14848285610dcb565b509392505050565b600082601f830112610e3157610e30610d15565b5b8135610e41848260208601610dda565b91505092915050565b60008060408385031215610e6157610e6061094f565b5b6000610e6f858286016109a2565b925050602083013567ffffffffffffffff811115610e9057610e8f610954565b5b610e9c85828601610e1c565b9150509250929050565b60008115159050919050565b610ebb81610ea6565b82525050565b6000602082019050610ed66000830184610eb2565b92915050565b7f4e487b7100000000000000000000000000000000000000000000000000000000600052602260045260246000fd5b60006002820490506001821680610f2357607f821691505b602082108103610f3657610f35610edc565b5b50919050565b600082825260208201905092915050565b7f43757272656e746c7920746865726520617265206e6f20636f6e746163747300600082015250565b6000610f83601f83610f3c565b9150610f8e82610f4d565b602082019050919050565b60006020820190508181036000830152610fb281610f76565b9050919050565b7f596f752063616e6e6f742061646420796f7572206f776e206164647265737300600082015250565b6000610fef601f83610f3c565b9150610ffa82610fb9565b602082019050919050565b6000602082019050818103600083015261101e81610fe2565b9050919050565b7f436f6e7461637420616c72656164792061646465640000000000000000000000600082015250565b600061105b601583610f3c565b915061106682611025565b602082019050919050565b6000602082019050818103600083015261108a8161104e565b9050919050565b60008190508160005260206000209050919050565b60006020601f8301049050919050565b600082821b905092915050565b6000600883026110f37fffffffffffffffffffffffffffffffffffffffffffffffffffffffffffffffff826110b6565b6110fd86836110b6565b95508019841693508086168417925050509392505050565b6000819050919050565b600061113a61113561113084610ba4565b611115565b610ba4565b9050919050565b6000819050919050565b6111548361111f565b61116861116082611141565b8484546110c3565b825550505050565b600090565b61117d611170565b61118881848461114b565b505050565b5b818110156111ac576111a1600082611175565b60018101905061118e565b5050565b601f8211156111f1576111c281611091565b6111cb846110a6565b810160208510156111da578190505b6111ee6111e6856110a6565b83018261118d565b50505b505050565b600082821c905092915050565b6000611214600019846008026111f6565b1980831691505092915050565b600061122d8383611203565b9150826002028217905092915050565b61124682610a10565b67ffffffffffffffff81111561125f5761125e610d1f565b5b6112698254610f0b565b6112748282856111b0565b600060209050601f8311600181146112a75760008415611295578287015190505b61129f8582611221565b865550611307565b601f1984166112b586611091565b60005b828110156112dd578489015182556001820191506020850194506020810190506112b8565b868310156112fa57848901516112f6601f891682611203565b8355505b6001600288020188555050505b50505050505056fea2646970667358221220a83d0668789a3410dc614bfb89e5fa5c06eaf8abfdd8f394d5dce60cbfbd3c3064736f6c63430008130033",
  "immutableReferences": {},
  "source": "// SPDX-License-Identifier: GPL-3.0\r\n\r\n//address = 0xc74E965A03A30d9351812e411C537c8033BBB43D\r\n\r\npragma solidity >=0.7.0 <0.9.0;\r\n\r\ncontract Messenger {\r\n    mapping(address => address[]) public allContacts;\r\n\r\n    mapping(address => bool) public isInContact;\r\n\r\n    function addContact(address addressToBeAdded) public payable {\r\n        require(\r\n            msg.sender != addressToBeAdded,\r\n            \"You cannot add your own address\"\r\n        );\r\n        require(!isInContact[addressToBeAdded], \"Contact already added\");\r\n\r\n        allContacts[msg.sender].push(addressToBeAdded);\r\n        allContacts[addressToBeAdded].push(msg.sender); //both side the address is added\r\n\r\n        isInContact[addressToBeAdded] = true;\r\n    }\r\n\r\n    function showContacts(\r\n        address showContactsOf\r\n    ) public view returns (address[] memory) {\r\n        require(\r\n            allContacts[showContactsOf].length != 0,\r\n            \"Currently there are no contacts\"\r\n        );\r\n        return allContacts[showContactsOf];\r\n    }\r\n\r\n    struct Message {\r\n        string _msg;\r\n        address _address;\r\n    }\r\n\r\n    mapping(address => Message[]) chats;\r\n\r\n    function showMsgsOf(\r\n        address showChatsWith\r\n    ) public view returns (Message[] memory) {\r\n        return chats[showChatsWith];\r\n    }\r\n\r\n    function sendMsgTo(address _to, string memory _msg) public payable{\r\n        chats[_to].push(Message(_msg, msg.sender));\r\n        chats[msg.sender].push(Message(_msg, _to)); //msg added to both sides\r\n    }\r\n}\r\n",
  "sourcePath": "D:\\Dapp Projects\\Messenger DApp(truffle)\\contracts\\Messenger.sol",
  "compiler": {
    "name": "solc",
    "version": "0.8.19+commit.7dd6d404.Emscripten.clang"
  },
  "schemaVersion": "3.4.13",
  "updatedAt": "2023-03-12T09:47:35.010Z",
  "networkType": "ethereum",
  "devdoc": {
    "kind": "dev",
    "methods": {},
    "version": 1
  },
  "userdoc": {
    "kind": "user",
    "methods": {},
    "version": 1
  }
}